:020000040800F2
:100000000050002081250008650C0008670C0008DE
:10001000690C00086B0C00086D0C00080000000063
:100020000000000000000000000000006F0C00084D
:10003000710C000800000000730C0008750C00082B
:10004000C9250008C9250008C9250008C9250008D8
:10005000C9250008C9250008C9250008C9250008C8
:10006000C9250008C9250008C9250008C9250008B8
:10007000C9250008C9250008C9250008C9250008A8
:10008000C9250008C9250008C9250008C925000898
:10009000C9250008C9250008C9250008C925000888
:1000A000C9250008C9250008C9250008C925000878
:1000B000C92500087D0C0008C9250008C9250008CD
:1000C000C9250008C9250008C9250008C925000858
:1000D000C9250008C9250008C9250008C925000848
:1000E000C9250008C9250008C9250008000000002E
:1000F0000000000000000000000000000000000000
:0C01000000000000000000005FF808F1A3
:1001100010B5054C237833B9044B13B10448AFF341
:1001200000800123237010BD240000200000000087
:100130001426000808B5034B1BB103490348AFF36D
:10014000008008BD000000002800002014260008E0
:1001500081F0004102E000BF83F0004330B54FEA78
:1001600041044FEA430594EA050F08BF90EA020FE5
:100170001FBF54EA000C55EA020C7FEA645C7FEA78
:10018000655C00F0E2804FEA5454D4EB5555B8BF9B
:100190006D420CDD2C4480EA020281EA030382EA0C
:1001A000000083EA010180EA020281EA0303362D9E
:1001B00088BF30BD11F0004F4FEA01314FF4801C71
:1001C0004CEA113102D0404261EB410113F0004F83
:1001D0004FEA03334CEA133302D0524263EB43033A
:1001E00094EA050F00F0A780A4F10104D5F1200ED8
:1001F0000DDB02FA0EFC22FA05F2801841F1000133
:1002000003FA0EF2801843FA05F359410EE0A5F106
:1002100020050EF1200E012A03FA0EFC28BF4CF037
:10022000020C43FA05F3C01851EBE37101F00045ED
:1002300007D54FF0000EDCF1000C7EEB00006EEBFA
:100240000101B1F5801F1BD3B1F5001F0CD3490884
:100250005FEA30004FEA3C0C04F101044FEA4452DB
:1002600012F5800F80F09A80BCF1004F08BF5FEA62
:10027000500C50F1000041EB045141EA050130BD42
:100280005FEA4C0C404141EB010111F4801FA4F1E5
:100290000104E9D191F0000F04BF01460020B1FA3A
:1002A00081F308BF2033A3F10B03B3F120020CDA72
:1002B0000C3208DD02F1140CC2F10C0201FA0CF050
:1002C00021FA02F10CE002F11402D8BFC2F1200CB5
:1002D00001FA02F120FA0CFCDCBF41EA0C0190406B
:1002E000E41AA2BF01EB0451294330BD6FEA0404B4
:1002F0001F3C1CDA0C340EDC04F11404C4F120029F
:1003000020FA04F001FA02F340EA030021FA04F3B0
:1003100045EA030130BDC4F10C04C4F1200220FA07
:1003200002F001FA04F340EA0300294630BD21FA45
:1003300004F0294630BD94F0000F83F4801306BF0B
:1003400081F480110134013D4EE77FEA645C18BFFF
:100350007FEA655C29D094EA050F08BF90EA020F96
:1003600005D054EA000C04BF1946104630BD91EA8E
:10037000030F1EBF0021002030BD5FEA545C05D191
:100380004000494128BF41F0004130BD14F58004D0
:100390003CBF01F5801130BD01F0004545F0FE4144
:1003A00041F470014FF0000030BD7FEA645C1ABF79
:1003B000194610467FEA655C1CBF0B46024650EAB0
:1003C000013406BF52EA033591EA030F41F40021DC
:1003D00030BD00BF90F0000F04BF0021704730B562
:1003E0004FF4806404F132044FF000054FF0000137
:1003F00050E700BF90F0000F04BF0021704730B5F8
:100400004FF4806404F1320410F0004548BF4042CC
:100410004FF000013EE700BF42004FEAE2014FEA21
:1004200031014FEA02701FBF12F07F4393F07F4FFC
:1004300081F06051704732F07F4208BF704793F0FF
:100440007F4F04BF41F40021704730B54FF4607412
:1004500001F0004521F000411CE700BF50EA010215
:1004600008BF704730B54FF000050AE050EA0102BE
:1004700008BF704730B511F0004502D5404261EB2E
:1004800041014FF4806404F132045FEA915C3FF46F
:10049000D8AE4FF003025FEADC0C18BF03325FEA0C
:1004A000DC0C18BF033202EBDC02C2F1200300FABD
:1004B00003FC20FA02F001FA03FE40EA0E0021FAE2
:1004C00002F11444BDE600BF70B54FF0FF0C4CF4D0
:1004D000E06C1CEA11541DBF1CEA135594EA0C0F82
:1004E00095EA0C0F00F0DEF82C4481EA030621EABD
:1004F0004C5123EA4C5350EA013518BF52EA0335F8
:1005000041F4801143F4801338D0A0FB02CE4FF0A9
:100510000005E1FB02E506F00042E0FB03E54FF0D9
:100520000006E1FB03569CF0000F18BF4EF0010ED1
:10053000A4F1FF04B6F5007F64F5407404D25FEACD
:100540004E0E6D4146EB060642EAC62141EA555180
:100550004FEAC52040EA5E504FEACE2EB4F1FD0CC2
:1005600088BFBCF5E06F1ED8BEF1004F08BF5FEA40
:10057000500E50F1000041EB045170BD06F00046F2
:1005800046EA010140EA020081EA0301B4EB5C049F
:10059000C2BFD4EB0C0541EA045170BD41F4801197
:1005A0004FF0000E013C00F3AB8014F1360FDEBFBC
:1005B000002001F0004170BDC4F10004203C35DA98
:1005C0000C341BDC04F11404C4F1200500FA05F31B
:1005D00020FA04F001FA05F240EA020001F00042BC
:1005E00021F0004110EBD37021FA04F642EB060132
:1005F0005EEA430E08BF20EAD37070BDC4F10C045C
:10060000C4F1200500FA04F320FA05F001FA04F21F
:1006100040EA020001F0004110EBD37041F100010B
:100620005EEA430E08BF20EAD37070BDC4F1200516
:1006300000FA05F24EEA020E20FA04F301FA05F27E
:1006400043EA020321FA04F001F0004121FA04F226
:1006500020EA020000EBD3705EEA430E08BF20EAF6
:10066000D37070BD94F0000F0FD101F00046400030
:1006700041EB010111F4801F08BF013CF7D041EAB2
:10068000060195F0000F18BF704703F000465200B6
:1006900043EB030313F4801F08BF013DF7D043EA87
:1006A0000603704794EA0C0F0CEA135518BF95EA3D
:1006B0000C0F0CD050EA410618BF52EA4306D1D1C4
:1006C00081EA030101F000414FF0000070BD50EAE3
:1006D000410606BF1046194652EA430619D094EA6D
:1006E0000C0F02D150EA013613D195EA0C0F05D157
:1006F00052EA03361CBF104619460AD181EA0301AB
:1007000001F0004141F0FE4141F470014FF0000062
:1007100070BD41F0FE4141F4780170BD70B54FF0FD
:10072000FF0C4CF4E06C1CEA11541DBF1CEA13557D
:1007300094EA0C0F95EA0C0F00F0A7F8A4EB05045F
:1007400081EA030E52EA03354FEA013100F0888056
:100750004FEA03334FF0805545EA131343EA12631F
:100760004FEA022245EA111545EA10654FEA0026D4
:100770000EF000419D4208BF964244F1FD0404F58D
:10078000407402D25B084FEA3202B61A65EB0305E9
:100790005B084FEA32024FF480104FF4002CB6EBA6
:1007A000020E75EB030E22BFB61A754640EA0C0026
:1007B0005B084FEA3202B6EB020E75EB030E22BF66
:1007C000B61A754640EA5C005B084FEA3202B6EBA7
:1007D000020E75EB030E22BFB61A754640EA9C0066
:1007E0005B084FEA3202B6EB020E75EB030E22BF36
:1007F000B61A754640EADC0055EA060E18D04FEAF4
:10080000051545EA16754FEA06164FEAC30343EA93
:1008100052734FEAC2025FEA1C1CC0D111F4801F60
:100820000BD141EA00014FF000004FF0004CB6E759
:1008300011F4801F04BF01430020B4F1FD0C88BFF8
:10084000BCF5E06F3FF6AFAEB5EB030C04BFB6EB03
:10085000020C5FEA500C50F1000041EB045170BDF6
:100860000EF0004E4EEA113114EB5C04C2BFD4EB23
:100870000C0541EA045170BD41F480114FF0000EA7
:10088000013C90E645EA060E8DE60CEA135594EA23
:100890000C0F08BF95EA0C0F3FF43BAF94EA0C0F26
:1008A0000AD150EA01347FF434AF95EA0C0F7FF49B
:1008B00025AF104619462CE795EA0C0F06D152EAEF
:1008C00003353FF4FDAE1046194622E750EA4106D3
:1008D00018BF52EA43067FF4C5AE50EA41047FF4E4
:1008E0000DAF52EA43057FF4EBAE12E74A0011D296
:1008F00012F5001211D20DD56FF47873B3EB62527A
:100900000ED44FEAC12343F0004343EA505323FA85
:1009100002F070474FF00000704750EA013002D1FA
:100920004FF0FF3070474FF000007047034B1A68DC
:1009300000235362536A8342FCD370476000002057
:10094000037F012B00D0704710B504462C4B1B7859
:1009500013B1012B13D010BD002100F08AFA294BEE
:100960001860274B01221A702268136A23F00A03C9
:1009700013622268136A43F002031362EBE700215B
:1009800000F077FA204B1860236800225A621D4B52
:100990001B68984225D9C01A1C4B18601B4B18685D
:1009A000FFF718FD14A3D3E90023FFF78DFD002204
:1009B000174BFFF789FDFFF799FF164B1870104B87
:1009C00000221A702268136A23F00A031362236854
:1009D0001A6A1A62104B1A68D36823F00203D360B4
:1009E000B9E79842DAD2C31A03F57F43FF33074AC7
:1009F0001360D3E7AFF300809CC420B07268A13FBE
:100A000050000020480000204C0000204000002042
:100A10000000E03F440000206000002010B50A4CB8
:100A200001228021204601F08FFA0A20FFF77EFF85
:100A300000228021204601F087FA044B1A68D3680F
:100A400043F00203D36010BD0008014060000020A5
:100A500063281AD91D4BA3FB00235B0903F1300265
:100A60000A70642202FB1303DBB2194AA2FB03C320
:100A7000DB0830334B70A2FB0023DB0803EB83035E
:100A80005A00801A30308870704709280FD9104BEF
:100A9000A3FB0023DB0803F130020A7003EB83039E
:100AA0005A00801A3030487000238B707047002342
:100AB0000B704B70A3F13333A3FB0023DB0803EB74
:100AC00083035A00801A3030887070471F85EB51BD
:100AD000CDCCCCCC72B6FEE700B591B00023089324
:100AE00009930B930C93019302930393049305933F
:100AF000012206924FF4803307930A9202220D924C
:100B00000E934FF4E0130F9306A800F015FE80B982
:100B10000F23019302210291002303934FF480627B
:100B20000492059301A801F047F820B911B05DF8CF
:100B300004FBFFF7CFFFFFF7CDFF0000F8B500F093
:100B4000ADFDFFF7C9FF01F087FB01F0D5FB01F018
:100B5000BFFC01F079FC0021354800F099FC04212C
:100B6000344800F023FC002412E004F16E03324A02
:100B700082FB0312DC17C4EBE20440F6741202FBA2
:100B800014342C4B1B689C634FF4C87000F0AAFD12
:100B90002A4A82FB0432E317C3EBA203033B03EBB5
:100BA00083035D00B42DE0D8FFF738FF244F3946AA
:100BB00005F0FE00FFF74CFF224E3146224B18781D
:100BC000FFF746FF214D4FF47A730622204928464D
:100BD00001F0D4FA4FF47A7303223946284601F023
:100BE000CDFA4FF47A7302221A49284601F0C6FA68
:100BF0004FF47A7308221849284601F0BFFA4FF4DF
:100C00007A7301221549284601F0B8FA4FF47A7335
:100C100003223146284601F0B1FA4FF47A730122DB
:100C20000F49284601F0AAFA642000F05BFD9CE71A
:100C300060000020A8000020DFA5D80095204F0903
:100C4000580000205400002044000020F000002044
:100C500000000020080000200C00002018000020E8
:100C600014000020FEE7FEE7FEE7FEE7FEE7704720
:100C70007047704708B500F023FD08BD08B502486D
:100C800000F014F908BD00BF6000002082B00E4BD8
:100C90009A6942F001029A619A6902F00102009297
:100CA000009ADA6942F08052DA61DB6903F080531E
:100CB0000193019B054A536823F0E06343F00073FE
:100CC000536002B0704700BF0010024000000140B6
:100CD00070B4036A23F001030362036A4668826901
:100CE00022F073020C6844EA020523F002028B68CA
:100CF00013430D4CA04209D00B4CA0420DD04660CE
:100D000085614A684263036270BC704723F0080340
:100D1000CA68134323F00403EEE726F440764A69D9
:100D200032438E691643EAE7002C014030B4036A6F
:100D300023F480730362036A4568C26922F0730278
:100D40000C68224323F400738C6843EA04230F4C9D
:100D5000A04209D00D4CA0420ED04560C2614A6845
:100D6000C263036230BC704723F40063CC6843EA7B
:100D7000042323F48063EDE725F440554C6945EAEC
:100D800004158C6945EA0415E7E700BF002C014013
:100D900030B4036A23F480530362036A4468C2696F
:100DA00022F4E6420D6842EA052223F400538D68DE
:100DB00043EA0533074DA84206D04460C2614A6841
:100DC0000264036230BC704724F480444D6944EAF5
:100DD0008514F2E7002C014030B4046A24F01004BA
:100DE00004628469056A24F4407444EA022222F40D
:100DF00070421B039BB21A4325F0A005090101F0C4
:100E0000A00129438261016230BC704730B4046A9A
:100E100024F480740462C469056A24F00304224344
:100E200022F0F0021B01DBB21A4325F4007509021F
:100E300001F400712943C261016230BC704730B4D3
:100E4000046A24F480540462C469056A24F440747A
:100E500044EA022222F470421B039BB21A4325F497
:100E60000055090301F400512943C261016230BCFD
:100E700070470C2914D8DFE801F0071313130A1385
:100E800013130D13131310000368586B7047036896
:100E9000986B70470368D86B70470368186C70478D
:100EA00000207047704770477047704710B5044680
:100EB00003681A6912F0020F11D0DA6812F0020FFB
:100EC0000DD06FF002021A610123037703689B695A
:100ED00013F0030F70D0FFF733FD0023237723684F
:100EE0001A6912F0040F12D0DA6812F0040F0ED053
:100EF0006FF004021A610223237723689B6913F4BD
:100F0000407F5FD02046FFF71BFD00232377236837
:100F10001A6912F0080F12D0DA6812F0080F0ED01A
:100F20006FF008021A61042323772368DB6913F04A
:100F3000030F4ED02046FFF703FD002323772368DD
:100F40001A6912F0100F12D0DA6812F0100F0ED0DA
:100F50006FF010021A61082323772368DB6913F40A
:100F6000407F3DD02046FFF7EBFC0023237723682A
:100F70001A6912F0010F03D0DA6812F0010F36D1AE
:100F800023681A6912F0800F03D0DA6812F0800F1C
:100F900034D123681A6912F0400F03D0DA6812F0D6
:100FA000400F32D123681A6912F0200F03D0DA689B
:100FB00012F0200F30D110BDFFF775FF2046FFF76C
:100FC00073FF8AE72046FFF76EFF2046FFF76CFFAE
:100FD0009BE72046FFF767FF2046FFF765FFACE77A
:100FE0002046FFF760FF2046FFF75EFFBDE76FF08A
:100FF00001021A612046FFF755FFC1E76FF080023A
:101000001A61204600F023FBC3E76FF040021A612B
:101010002046FFF74AFFC5E76FF020021A6120461D
:1010200000F014FBC7E7000003681B4A90420AD097
:10103000B0F1804F07D0A2F59432904203D002F570
:101040008062904203D123F070034A681343124A2E
:1010500090420AD0B0F1804F07D0A2F5943290426E
:1010600003D002F58062904203D123F44073CA6832
:10107000134323F080034A69134303608B68C36200
:101080000B688362044B984202D00123436170478E
:101090000B690363F9E700BF002C014040B310B5B2
:1010A000044690F83D30F3B1022384F83D302146E8
:1010B00051F8040BFFF7B8FF012384F8463084F899
:1010C0003E3084F83F3084F8403084F8413084F872
:1010D000423084F8433084F8443084F8453084F852
:1010E0003D30002010BD80F83C3001F03FF9DBE7D7
:1010F0000120704740B310B5044690F83D30F3B17D
:10110000022384F83D30214651F8040BFFF78CFF91
:10111000012384F8463084F83E3084F83F3084F868
:10112000403084F8413084F8423084F8433084F809
:10113000443084F8453084F83D30002010BD80F8FC
:101140003C3001F027F9DBE70120704730B4036A37
:1011500023F010030362036A4468826922F4E642C2
:101160000D6842EA052223F020038D6843EA051347
:101170000E4DA84209D00D4DA8420ED044608261A8
:101180004A688263036230BC704723F08003CD68F5
:1011900043EA051323F04003EDE724F440644D696E
:1011A00044EA85048D6944EA8504E7E7002C0140A0
:1011B00038B590F83C30012B60D00D460446012331
:1011C00080F83C300C2A1AD8DFE802F00719191908
:1011D0001D1919193119191944000068FFF778FD14
:1011E0002268936943F0080393612268936923F0AE
:1011F000040393612268936929690B43936100207A
:1012000084F83C0038BD0068FFF7A0FF22689369AE
:1012100043F4006393612268936923F480639361CC
:1012200022689369296943EA01239361E7E700682B
:10123000FFF77CFD2268D36943F00803D36122687D
:10124000D36923F00403D3612268D36929690B436E
:10125000D361D4E70068FFF79BFD2268D36943F4AC
:101260000063D3612268D36923F48063D361226869
:10127000D369296943EA0123D361C0E70220C1E7AA
:1012800070B4056A25F0010505628469056A114E8E
:10129000B0420DD0B0F1804F0AD0A6F59436B042DE
:1012A00006D006F58066B04202D044F0010202E0AA
:1012B00024F00304224322F0F0021B01DBB21343AB
:1012C00025F00A0501F00A0129438361016270BC1F
:1012D000704700BF002C014038B590F83C30012B1E
:1012E00052D00D460446012380F83C30C2B1042A96
:1012F00027D0082A37D0CB684A6809680068FFF70A
:101300009EFD2268D36923F44063D3612268D369C8
:10131000A96843EA0123D361002084F83C0038BD6A
:10132000CB684A6809680068FFF7AAFF22689369DA
:1013300023F00C03936122689369A9680B439361BE
:10134000EAE7CB684A6809680068FFF745FD22684C
:10135000936923F44063936122689369A96843EA1F
:1013600001239361D8E7CB684A6809680068FFF7F2
:101370004DFD2268D36923F00C03D3612268D36941
:10138000A9680B43D361C7E70220C8E710B401F096
:101390001F01012303FA01F4036A23EA0403036231
:1013A000036A8A401343036210BC70470A4669BB54
:1013B00090F83E30DBB213F1FF3318BF0123002B4E
:1013C00060D110B5002A3DD1022380F83E3011468D
:1013D000044601220068FFF7D9FF23682B4A934295
:1013E00040D02368294A934241D0B3F1804F3ED088
:1013F000A2F5943293423AD002F58062934236D0FD
:101400001A6842F001021A6000203AE0042909D06B
:1014100008290FD090F84130DBB213F1FF3318BF29
:101420000123CCE790F83F30DBB213F1FF3318BF54
:101430000123C4E790F84030DBB213F1FF3318BF4B
:101440000123BCE7042A05D0082A07D0022380F82C
:101450004130BCE7022380F83F30B8E7022380F830
:101460004030B4E75A6C42F400425A64B9E79A68D3
:1014700002F00702062A07D01A6842F001021A6039
:10148000002010BD012070470020FAE7002C014029
:101490000B4609BB90F83E20D2B26BBB90F84210CD
:1014A000C9B2012A40F09680012940F0948010B51D
:1014B00093BB022280F83E20002B3DD1022280F80F
:1014C00042200C2B4DD8DFE803F0474C4C4C674CC6
:1014D0004C4C6D4C4C4C7300042905D0082907D0A6
:1014E00090F84120D2B2D8E790F83F20D2B2D4E7AA
:1014F00090F84020D2B2D0E7042B05D0082B07D0BB
:1015000090F84510C9B2CCE790F84310C9B2C8E7CB
:1015100090F84410C9B2C4E7042B05D0082B07D0BB
:10152000022280F84120C7E7022280F83F20C3E76B
:10153000022280F84020BFE7042B05D0082B07D0FB
:10154000022280F84520BCE7022280F84320B8E759
:10155000022280F84420B4E70168CA6842F002021F
:10156000CA601946044601220068FFF70FFF23688E
:101570001B4A934222D0B3F1804F1FD0A2F5943280
:1015800093421BD002F58062934217D01A6842F052
:1015900001021A6000221BE00168CA6842F00402DE
:1015A000CA60DEE70168CA6842F00802CA60D8E78C
:1015B0000168CA6842F01002CA60D2E79A6802F075
:1015C0000702062A09D01A6842F001021A600022B6
:1015D000104610BD0122104670470022F8E700BFF8
:1015E000002C014090F83C30012B2BD030B401236B
:1015F00080F83C30022380F83D3003685C689D68C9
:1016000024F070040A6822435A6003680E4A934229
:101610000AD0B3F1804F07D0A2F59432934203D0A1
:1016200002F58062934204D125F080054A68154393
:101630009D60012380F83D30002380F83C3018463F
:1016400030BC704702207047002C01407047704743
:1016500010B504460E4B18784FF47A73B3FBF0F3D1
:101660000C4A1068B0FBF3F000F0C8FC68B90F2C0E
:1016700001D901200AE0002221464FF0FF3000F09E
:101680007BFC054B1C60002000E0012010BD00BF6A
:1016900019000020200000201C00002008B5074A87
:1016A000136843F010031360032000F053FC0F2075
:1016B000FFF7CEFFFFF7EAFA002008BD0020024046
:1016C000034A1168034B1B780B441360704700BF3B
:1016D0005C00002019000020014B1868704700BF13
:1016E0005C00002038B50446FFF7F6FF0546B4F16C
:1016F000FF3F02D0044B1B781C44FFF7EDFF401B5B
:10170000A042FAD338BD00BF1900002082B0084BB8
:101710001B68084AA2FB03235B0A00FB03F001904D
:1017200000BF019B5A1E0192002BF9D102B07047F5
:1017300020000020D34D6210002800F0F18170B528
:1017400082B00446036813F0010F2CD0AA4B5B68EB
:1017500003F00C03042B1DD0A74B5B6803F00C03B4
:10176000082B12D06368B3F5803F41D0002B55D1D0
:1017700003F1804303F504331A6822F480321A60BF
:101780001A6822F480221A6037E09B4B5B6813F4DE
:10179000803FE7D0984B1B6813F4003F03D0636889
:1017A000002B00F0BF81236813F0020F75D0924B1D
:1017B0005B6813F00C0F5FD08F4B5B6803F00C037A
:1017C000082B54D02369002B00F089808B4B012219
:1017D0001A60FFF781FF0546874B1B6813F0020F65
:1017E00074D1FFF779FF401B0228F5D903209EE151
:1017F000814A136843F480331360636843B3FFF78F
:101800006BFF05467C4B1B6813F4003FCBD1FFF701
:1018100063FF401B6428F5D9032088E1B3F5A02FAE
:1018200009D0754B1A6822F480321A601A6822F4C3
:1018300080221A60E1E703F18043A3F53C331A6884
:1018400042F480221A601A6842F480321A60D4E7A7
:10185000FFF742FF0546684B1B6813F4003FA2D018
:10186000FFF73AFF401B6428F5D903205FE1624B84
:101870005B6813F4803FA5D15F4B1B6813F0020F28
:1018800003D02369012B40F04F815B4A136823F09A
:10189000F803616943EAC1031360236813F0080F7A
:1018A00032D0A369002B5BD0554B01221A60FFF7A1
:1018B00013FF0546504B5B6A13F0020F21D1FFF76F
:1018C0000BFF401B0228F5D9032030E14A4A136878
:1018D00023F0F803616943EAC1031360DDE7474B76
:1018E00000221A60FFF7F8FE0546434B1B6813F011
:1018F000020FD2D0FFF7F0FE401B0228F5D90320DB
:1019000015E10120FFF702FF236813F0040F00F038
:101910009780394BDB6913F0805F33D1364BDA693E
:1019200042F08052DA61DB6903F080530193019B3E
:101930000125344B1B6813F4807F25D0E368012B0D
:1019400036D0002B4CD103F1804303F504331A6ADF
:1019500022F001021A621A6A22F004021A622CE0D2
:10196000274B00221A60FFF7B7FE0546224B5B6A41
:1019700013F0020FC8D0FFF7AFFE401B0228F5D9C5
:101980000320D4E00025D4E71E4A136843F4807393
:101990001360FFF7A1FE06461A4B1B6813F4807F05
:1019A000CCD1FFF799FE801B6428F5D90320BEE057
:1019B000114A136A43F001031362E36873B3FFF73C
:1019C0008BFE06460C4B1B6A13F0020F37D1FFF754
:1019D00083FE801B41F288339842F3D90320A6E0AE
:1019E000052B11D0044B1A6A22F001021A621A6AFE
:1019F00022F004021A62E0E70010024000004242B6
:101A000080044242007000404D4B1A6A42F00402CA
:101A10001A621A6A42F001021A62CEE7FFF75CFE10
:101A20000646474B1B6A13F0020F08D0FFF754FE1F
:101A3000801B41F288339842F3D9032077E0E5B95F
:101A4000E369002B72D03E4A526802F00C02082A69
:101A500056D0022B17D03B4B00221A60FFF73CFEFA
:101A60000446374B1B6813F0007F47D0FFF734FE66
:101A7000001B0228F5D9032059E0314AD36923F02D
:101A80008053D361DCE72F4B00221A60FFF724FE5E
:101A900005462B4B1B6813F0007F06D0FFF71CFE9A
:101AA000401B0228F5D9032041E0236AB3F5803FAB
:101AB0001AD023494B6823F47413226A606A0243E4
:101AC00013434B601F4B01221A60FFF705FE0446CB
:101AD0001B4B1B6813F0007F0ED1FFF7FDFD001BB1
:101AE0000228F5D9032022E0154A536823F4003375
:101AF000A1680B435360DCE7002018E0002016E0EB
:101B0000012B16D00E4B5B6803F48031226A9142A0
:101B100011D103F47013626A93420ED1002006E0E3
:101B200001207047012002E0012000E0002002B007
:101B300070BD0120FBE70120F9E70120F7E700BFB6
:101B4000001002406000424210B487B0164C94E886
:101B50000F000DF1180C0CE90F00238AADF80430CA
:101B6000124B5B6803F00C02082A03D0104807B040
:101B700010BC7047C3F38342624412F8102C13F474
:101B8000803F0CD0094B5B68C3F34043634413F8B8
:101B9000143C074800FB02F0B0FBF3F0E7E7054810
:101BA00000FB02F0E3E700BF2C2600080010024013
:101BB00000127A0000093D00002800F0A08070B5F6
:101BC0000446534B1B6803F007038B420BD2504A69
:101BD000136823F007030B431360136803F0070334
:101BE0008B4240F08E80236813F0020F17D013F061
:101BF000040F04D0474A536843F4E06353602368FA
:101C000013F0080F04D0434A536843F46053536001
:101C1000404A536823F0F003A068034353600D4625
:101C2000236813F0010F31D06368012B20D0022B01
:101C300025D0384A126812F0020F64D035494A683C
:101C400022F0030213434B60FFF746FD0646314B7B
:101C50005B6803F00C036268B3EB820F16D0FFF7EA
:101C60003BFD801B41F288339842F0D9032045E0C8
:101C7000284A126812F4003FE0D101203EE0254AD4
:101C8000126812F0007FD9D1012037E0204B1B6889
:101C900003F00703AB420AD91D4A136823F0070378
:101CA0002B431360136803F00703AB422DD1236865
:101CB00013F0040F06D0174A536823F4E063E16879
:101CC0000B435360236813F0080F07D0114A536881
:101CD00023F46053216943EAC1035360FFF734FFE3
:101CE0000C4B5B68C3F303130B4AD35CD8400B4B1C
:101CF00018600B4B1868FFF7ABFC002070BD01208B
:101D000070470120FAE70120F8E70120F6E700BF5D
:101D10000020024000100240402600082000002061
:101D20001C000020014B1868704700BF20000020F5
:101D300008B5FFF7F7FF044B5B68C3F30223034AC0
:101D4000D35CD84008BD00BF0010024050260008F8
:101D500008B5FFF7E7FF044B5B68C3F3C223034AF0
:101D6000D35CD84008BD00BF0010024050260008D8
:101D7000F0B482B000263546A0E0002A58D0012AEF
:101D800010D1CE680EE06A4FBA4251D048D9694F9F
:101D9000BA424DD007F58037BA4249D0A7F580172F
:101DA000BA4245D0FF2B57D88446FF2B57D8AC00FA
:101DB000DCF800200F27A74022EA070206FA04F405
:101DC0002243CCF800204A6812F0805F75D05A4A4E
:101DD000946944F001049461926902F00102019255
:101DE000019AAC08A71C554A52F8272005F00307B2
:101DF000BF004FF00F0C0CFA07FC22EA0C0C504A03
:101E0000904232D002F58062904271D002F5806239
:101E100090426FD002F58062904224D0042225E0E7
:101E2000A7F58017BA4203D007F58037BA42B9D177
:101E30008A687AB1012A08D044610826B2E7CE68E0
:101E40000836AFE7CE680C36ACE704610826A9E790
:101E50000026A7E70426A5E700F1040CA5E7A5F1F5
:101E60000804A400A4E7032200E00022BA4042EAEA
:101E70000C020234314F47F824204A6812F4803FA4
:101E80003AD0304C22681A4322604A6812F4003F6C
:101E900038D02C4C62681A4362604A6812F4801F82
:101EA00036D0284CA2681A43A2604A6812F4001F78
:101EB00034D0244CE2681343E36001350B6833FAF5
:101EC00005F231D00124AC4023409C42F5D14A6850
:101ED000122AB7D03FF657AF022AB0D07FF64DAFE7
:101EE000032AB5D0112A7FF45DAFCE68043659E7D6
:101EF0000122BBE70222B9E7124C226822EA030260
:101F00002260C2E70F4C626822EA03026260C4E703
:101F10000C4CA26822EA0302A260C6E7094CE26800
:101F200022EA0303E360C8E702B0F0BC704700BFD9
:101F3000000021100000311000100240000001409C
:101F400000080140000401400AB101617047090422
:101F500001617047074AD36823F4E0631B041B0C3C
:101F6000000200F4E060184340F0BF6040F400302D
:101F7000D060704700ED00E030B4174BDB68C3F36E
:101F80000223C3F10704042C28BF04241D1D062DC1
:101F900001D9033B00E000234FF0FF3505FA04F4BC
:101FA00021EA0401994005FA03F322EA03031943E5
:101FB000002809DB0901C9B200F1604000F5614069
:101FC00080F8001330BC704700F00F000901C9B25F
:101FD000024B1954F6E700BF00ED00E014ED00E0FD
:101FE000002807DB00F01F02400901239340024A4A
:101FF00042F82030704700BF00E100E00138B0F146
:10200000807F0AD2064B5860064AF02182F82310DE
:102010000020986007221A6070470120704700BFB7
:1020200010E000E000ED00E07047000038B5044625
:102030000268136923F44053C1680B43136183683A
:102040000269134342691A430168CB6823F4B05311
:1020500023F00C031343CB600268536923F44073ED
:1020600081690B4353610268124B9A421FD0FFF7FC
:102070005FFE00EB800000EB800063689B00B0FB1C
:10208000F3F00D4DA5FB00325109642202FB110251
:1020900013013233A5FB03235B0903F0F00202EBCB
:1020A000011203F00F03216813448B6038BDFFF762
:1020B0004FFEDEE7003801401F85EB512DE9F0416E
:1020C00005460F4616469846069C2B681B6837EA5D
:1020D00003030CBF01230023B3421DD1B4F1FF3F22
:1020E000F3D02CB1FFF7F8FAA0EB0800A042ECD92E
:1020F0002A68D36823F4D073D3602A68536923F025
:1021000001035361202385F83D3085F83E300023DC
:1021100085F83C30032000E00020BDE8F08158B392
:1021200010B5044690F83D300BB3242384F83D30BD
:102130002268D36823F40053D3602046FFF776FF6C
:102140002268136923F4904313612268536923F0D2
:102150002A0353612268D36843F40053D3600020FC
:102160002064202384F83D3084F83E3010BD80F890
:102170003C3000F0CBF9D8E7012070472DE9F04161
:1021800082B01E4690F83D30DBB2202B54D104467D
:102190000D469046002954D0002A54D090F83C3087
:1021A000012B52D0012380F83C300023036421230B
:1021B00080F83D30FFF790FA0746A4F82480A4F891
:1021C0002680A368B3F5805F05D04FF00008002398
:1021D00084F83C3011E0236913B14FF00008F6E7B2
:1021E000A8460025F3E738F8023B2268C3F308034A
:1021F0005360E38C013B9BB2E384E38C9BB273B1ED
:1022000000963B46002280212046FFF757FFF0B999
:10221000002DE8D015F8012B23685A60E9E70096F5
:102220003B46002240212046FFF748FF034680B985
:10223000202284F83D2000E00223184602B0BDE8C9
:10224000F0810123F9E70123F7E70223F5E70323F0
:10225000F3E70323F1E700002DE9F04188B0002403
:102260000494059406940794204B9A6942F0100256
:102270009A619A6902F010020192019A9A6942F0F9
:1022800020029A619A6902F020020292029A9A69E7
:1022900042F004029A619B6903F004030393039BD9
:1022A000DFF8508022464FF400514046FFF74CFEC5
:1022B0000F4D224680212846FFF746FE4FF400537B
:1022C00004930127059706940226079604A9404621
:1022D000FFF74EFD8023049305970694079604A903
:1022E0002846FFF745FD08B0BDE8F0810010024028
:1022F000000801400010014000B587B0002304939E
:10230000059300930193029303931648164A0260C3
:102310004722426083604FF6FF72C26003618361AF
:10232000FEF7E8FEA8B900230493059304A90D481D
:10233000FFF758F980B9002200920123019302921D
:10234000039269460748FEF7C7FF40B907B05DF83A
:1023500004FBFEF7BFFBE6E7FEF7BCFBEBE7FEF78F
:10236000B9FBF3E760000020000400400368B3F10C
:10237000804F00D0704782B003F50433DA6942F031
:102380000102DA61DB6903F001030193019B02B0F2
:102390007047000000B587B00023029303930493B5
:1023A00005930268144B9A4202D007B05DF804FB13
:1023B00003F50333DA6942F00202DA61DA6902F006
:1023C00002020092009A9A6942F004029A619B69A3
:1023D00003F004030193019B4023029302A90748E1
:1023E000FFF7C6FC002211461D20FFF7C5FD1D208A
:1023F000FFF7F6FDD9E700BF0004004000080140E8
:1024000000B587B0002302930393049305930368F8
:10241000B3F1804F02D007B05DF804FB03F504333D
:102420009A6942F004029A619B6903F004030193E4
:10243000019B022302930393059302A90148FFF72E
:1024400097FCE8E70008014000B58BB00023089333
:1024500009930193029303930493059306930793BF
:102460001A484FF08042026047224260836044F67F
:102470002062C26003618361FEF710FEE0B90023B1
:102480000893099308A91148FFF7ACF8B8B960237D
:1024900001934FF47A73029300230393059304226C
:1024A0000DEB02010948FEF783FE58B90748FFF714
:1024B000A7FF0BB05DF804FBFEF70CFBDFE7FEF7B0
:1024C00009FBE4E7FEF706FBF0E700BFA8000020E9
:1024D00008B50C480C4B03604FF4E13343604FF4F4
:1024E000805383600023C3604FF4806202610C223A
:1024F00042618361C361FFF712FE00B908BDFEF7B8
:10250000E9FAFBE7F00000200044004010B586B077
:10251000002302930393049305930268164B9A4297
:1025200001D006B010BD03F5E633DA6942F400329B
:10253000DA61DA6902F400320092009A9A6942F094
:1025400004029A619B6903F004030193019B042335
:1025500002930223039303230593084C02A9204608
:10256000FFF706FC0823029300230393049302A9B8
:102570002046FFF7FDFBD4E700440040000801407F
:102580000C480D490D4A002302E0D458C4500433CE
:10259000C4188C42F9D30A4A0A4C002301E01360A4
:1025A0000432A242FBD3FFF73FFD00F00FF8FEF725
:1025B000C5FA7047000000202400002060260008B3
:1025C0002400002034010020FEE7000070B5002642
:1025D0000C4D0D4C641BA410A64209D100F01AF852
:1025E00000260A4D0A4C641BA410A64205D170BDFA
:1025F00055F8043B98470136EEE755F8043B9847F9
:102600000136F2E758260008582600085826000828
:102610005C260008F8B500BFF8BC08BC9E467047B1
:0C262000F8B500BFF8BC08BC9E4670472F
:10262C0002030405060708090A0B0C0D0E0F101007
:10263C000102000000000000000000000102030481
:0C264C000607080900000000010203045A
:042658003501000840
:04265C001101000860
:10266000616E676C652000002C2000006469737443
:10267000616E63650A000000200100001000000088
:042680000024F4003E
:040000050800258149
:00000001FF
